:030000000201E812
:0C01E800787FE4F6D8FD75812202022F1A
:10048200D2FF75D803C2DCC2DB0000000000D2DA62
:100492000000000000000000000075A2AA75A3AAD7
:1004A20012055112058D12058075CDFC85CDCB75D7
:0C04B200CC6685CCCAD2CAD2ADD2AF2233
:0100190022C4
:1005510053A33C43A38275A50043A52A53A20F438D
:09056100A2A053A4CF43A4202260
:0D05800053A2CF43A22053A3FC43A30222A9
:0D058D0053A5FC53A4CF53A33F53A2CF228C
:03000300020016E2
:03001600C289326A
:03000B0002001ED2
:03001E00C28D325E
:03001300020026C2
:03002600C28B3258
:03001B0002002EB2
:03002E00C28F324C
:03002300020006D2
:05000600C299C298320E
:03002B0002053596
:10053500C0E0C0D0C2CFD203D3E52194007480942B
:0C054500804004B2951521D0D0D0E032E7
:03003B0002001AA6
:01001A0032B3
:0300430002002197
:0100210032AC
:03004B000200228E
:0100220032AB
:030053000200297F
:0100290032A4
:0C04F100010800010900010A00010B00D5
:10033A007F147E0012051353A33F53A5FC53A4CF89
:10034A0053A2CF000000000020B405750801800602
:10035A0085080EE4F50820B20575090180068509AD
:10036A000FE4F509209705750A018006850A0CE451
:10037A00F50A209205750B018006850B0DE4F50B35
:0C038A0043A38043A50243A42043A2200B
:010396002244
:1002DA000DC00C410AEA0DC00DC00C410AEA0DC05E
:1002EA000AEA0A4E092F0AEA0A4E092F092F082E8E
:1002FA00092F0A4E0AEA0DC0092F082E092F0A4EA5
:10030A000AEA0DC00C41125E0DC00C41125E0DC00E
:10031A000404040404040404030308030308030193
:10032A000301040403010301040404040804040887
:0B04FD00011E00011D00011C00C100D9
:1004BE00120482120019E5F7543F44C0F5F7C295B5
:1004CE00E4F5217FF47E01120513C290C294C2920C
:1004DE00120551D2FF12056A12039712012412005F
:0304EE002A80F071
:10056A00300304C203051CC3E51C940574809480FF
:05057A00400312033AEA
:01057F002259
:10039700E50C64017005B2927521E8E50F64017000
:1003A7001F1205517521E820000B7D717F3F120355
:1003B700F0D200800512000EC20012058D120580D2
:1003C700E50E6401701BB294B201200114F521C23D
:1003D700CA75CDFC85CDCB75CC6685CCCAD2CAF59E
:0903E7001DE4F50EF50CF50F22E2
:100124002001030201E7E52160030201E7C2CAAF2F
:100134001DEF3395E0FEEF25E0FFEE33FE74DA2F7A
:10014400F58274023EF583E493FE740193FBAA06E0
:10015400EA3395E0F9F8C3E49BFFE49AFE7401994D
:10016400FDE498FCE4FB7A01F9F812043E8FCD8596
:10017400CDCBAF1DEF3395E0FEEF25E0FFEE33FE70
:1001840074DA2FF58274023EF583E493FE740193CE
:10019400FBAA06EA3395E0F9F8C3E49BFFE49AFE70
:1001A400740199FDE498FCE4FB7A01F9F812043E29
:1001B400AF038FCC85CCCAD2CAAF1DEF3395E0FE16
:1001C400741A2FF58274033EF583E49375F0F4A456
:1001D400F521051DAF1DEF3395E0FEEF64204E7051
:0401E40002F51D22E1
:01002A0022B3
:10051300E4FDFCC3ED9FEC9E5017E4FBFAD2FF0B06
:10052300BB00010ABA03F6BBE8F30DBD00010C8062
:01053300E2E5
:0105340022A4
:0A05080008100102040810204080D2
:10027400EDFB7A0064017004C296D291EB64024AE9
:100284007004D296C291E5105F6004D2948002C2D9
:1002940094E5115F6004D2B48002C2B4E5125F60D9
:1002A40004D2B58002C2B5E5135F6004D297800220
:1002B400C297E5145F6004D2B68002C2B6E5155F4A
:1002C4006004D2928002C292E5165F6004D2B280CA
:0602D40002C2B2C2932237
:0403F0008F188D19BC
:1003F400E4F51AC3E51A94E874809483503BE4F559
:100404001BC3E51B94647480948050207D02AF1854
:100414001202747F017E001205137D01AF191202CE
:10042400747F017E00120513051B80D512033AE583
:090434000F64016004051A80BA8E
:01043D00229C
:05000E00D296D2912200
:1001F4000204BEE493A3F8E493A34003F68001F25F
:1002040008DFF48029E493A3F85407240CC8C3330B
:10021400C4540F4420C8834004F456800146F6DFDA
:10022400E4800B01020408102040809004F1E47E75
:10023400019360BCA3FF543F30E509541FFEE493CF
:10024400A360010ECF54C025E060A840B8E493A396
:10025400FAE493A3F8E493A3C8C582C8CAC583CAC1
:10026400F0A3C8C582C8CAC583CADFE9DEE780BE79
:0105120000E8
:10043E00C2D5E830E70FB2D5E4C39BFBE49AFAE4E9
:10044E0099F9E498F8EC30E717B2D512047412005B
:10045E0092E4C39BFBE49AFAE499F9E498F88003DA
:10046E0012009230D50DE4C39FFFE49EFEE49DFD85
:04047E00E49CFC22DC
:1000560075F008758200EF2FFFEE33FECD33CDCC61
:1000660033CCC58233C5829BED9AEC99E5829840E4
:100076000CF582EE9BFEED9AFDEC99FC0FD5F0D6C1
:10008600E4CEFBE4CDFAE4CCF9A88222B800C1B9EB
:100096000059BA002DEC8BF084CFCECDFCE5F0CB29
:1000A600F97818EF2FFFEE33FEED33FDEC33FCEB62
:1000B60033FB10D703994004EB99FB0FD8E5E4F91D
:1000C600FA227818EF2FFFEE33FEED33FDEC33FC0A
:1000D600C933C910D7059BE99A4007EC9BFCE99AFE
:1000E600F90FD8E0E4C9FAE4CCFB2275F010EF2F43
:1000F600FFEE33FEED33FDCC33CCC833C810D70743
:100106009BEC9AE899400AED9BFDEC9AFCE899F87D
:0E0116000FD5F0DAE4CDFBE4CCFAE4C8F92210
:00000001FF
