:030000000200D12A
:0C00D100787FE4F6D8FD75812002008BDA
:03001600D2902263
:10008B00120056120022E5F7543F44C0F5F7C29513
:10009B007FF47E011200AFD2FF12001212001A126F
:0400AB00001980F3C5
:0100120022CB
:0100190022C4
:01001A0022C3
:0100210022BC
:1000AF00E4FDFCC3ED9FEC9E5017E4FBFAD2FF0B6F
:1000BF00BB00010ABA03F6BBE8F30DBD00010C80CB
:0100CF00E24E
:0100D000220D
:10005600D2FF75D803C2DCC2DB0000000000D2DA92
:100066000000000000000000000075A2AA75A3AA07
:10007600D29275CDF185CDCB75CC9A85CCCAD2CA34
:05008600D2ADD2AF2253
:0100220022BB
:03001E008F082226
:04000E007509192235
:03000300020026D2
:03002600C289325A
:03000B0002002EC2
:03002E00C28D324E
:0300130002003EAA
:03003E00C28B3240
:03001B000200469A
:03004600C28F3234
:03002300020006D2
:05000600C299C298320E
:03002B000200DDF3
:0700DD00C2CFD201B295323F
:03003B0002002997
:0100290032A4
:0300430002002A8E
:01002A0032A3
:03004B000200317F
:01003100329C
:0300530002003276
:01003200329B
:00000001FF
