:0300000002007C7F
:0C007C00787FE4F6D8FD75810702005D76
:03002E00D290224B
:10005D0012000312008AE5F7543F44C0F5F7D2941D
:0F006D00D292D2FF12003112008812003280F3BB
:0100310022AC
:0100320022AB
:010088002255
:010089002254
:10003B00E4FDFCC3ED9FEC9E5017E4FBFAD2FF0BE3
:10004B00BB00010ABA03F6BBE8F30DBD00010C803F
:01005B00E2C2
:01005C002281
:1000030075D803C2DCC2DB0000000000D2DA0000B6
:10001300000000000000000075A2AA75A30A43A314
:0B0023000243A220C290C294C29222AD
:01008A002253
:00000001FF
