:03000000020056A5
:0C005600787FE4F6D8FD75812002009D43
:1000E200D2FF75D803C2DCC2DB0000000000D2DA06
:1000F2000000000000000000000075A2AAC2907576
:10010200CDF185CDCB75CC9A85CCCAD2CAD2ADD22F
:02011200AF221A
:01001A0022C3
:0300030002002ECA
:03002E00C2893252
:03000B0002003EB2
:03003E00C28D323E
:03001300020046A2
:03004600C28B3238
:03001B0002004E92
:03004E00C28F322C
:03002300020006D2
:05000600C299C298320E
:03002B0002000EC2
:05000E00C2CFD2003258
:03003B00020016AA
:040016005395FE32CE
:0300430002001E9A
:04001E005395FD32C7
:03004B000200268A
:040026005395FB32C1
:0300530002019413
:0A0194005395EF5395DF53AFF73298
:03018900010B0067
:1001630075A2A80000000000209005750B01800611
:0A017300850B0CE4F50B75A2AA221F
:07018C000108000209000058
:100145001200E212001AE5F7543F44C0F5F7D2FF5A
:0E01550012011412017D12002212019E80F090
:1001140030000CC2000508050AE50A70020509C38F
:10012400E5089405748094804006E4F508120163A0
:10013400C3E50A94E8E50994034005E4F509F50AE2
:010144002298
:0100220022BB
:0C017D00E50C64017002B201E4F50C22F4
:09019E00300103D29022C290222C
:10006200020145E493A3F8E493A34003F68001F26E
:1000720008DFF48029E493A3F85407240CC8C3339F
:10008200C4540F4420C8834004F456800146F6DF6E
:10009200E4800B0102040810204080900189E47E74
:1000A200019360BCA3FF543F30E509541FFEE49363
:1000B200A360010ECF54C025E060A840B8E493A32A
:1000C200FAE493A3F8E493A3C8C582C8CAC583CA55
:1000D200F0A3C8C582C8CAC583CADFE9DEE780BE0D
:01019300006B
:00000001FF
