:0300000002007D7E
:0C007D00787FE4F6D8FD758107020003CF
:10005D0075D803C2DCC2DB0000000000D2DA00005C
:10006D00000000000000000075A2A8D290C29122ED
:010089002254
:1000030012005D120089D2917FF47E0112003BE55C
:10001300F7543F44C0F5F7D2FF7F147E0012003B34
:10002300120000E50064017002B291E4F50080E77C
:10003B00E4FDFCC3ED9FEC9E5017E4FBFAD2FF0BE3
:10004B00BB00010ABA03F6BBE8F30DBD00010C803F
:01005B00E2C2
:01005C002281
:00000001FF
